:020000040800F2
:100000000017002001010008C9200008D11C0008C9
:10001000C11D00084F0A0008252300080000000049
:10002000000000000000000000000000EF200008B9
:10003000F10C000800000000ED200008F12000088D
:100040001B0100081B0100081B0100081B01000820
:100050001B0100081B0100081B0100081B01000810
:100060001B0100081B0100081B0100081B01000800
:100070001B0100081B0100081B0100081B010008F0
:100080001B0100081B0100081B0100080D230008CC
:1000900019230008510A00085D0A00081B01000826
:1000A0001B0100081B0100081B0100081B010008C0
:1000B0001B0100081B0100081B0100081B010008B0
:1000C0001B0100081B0100081B0100081B010008A0
:1000D0001B01000805230008092300081B01000874
:1000E0001B0100081B0100081B010008DFF80CD0F1
:1000F00000F082F800480047512300080017002054
:100100000648804706480047FEE7FEE7FEE7FEE7B1
:10011000FEE7FEE7FEE7FEE7FEE7FEE74D2100080B
:10012000ED00000840EA01039B0703D009E008C97D
:10013000121F08C0042AFAD203E011F8013B00F8AC
:10014000013B521EF9D27047D2B201E000F8012BF8
:10015000491EFBD270470022F6E710B513460A4647
:1001600004461946FFF7F0FF204610BD70B506465D
:1001700002F0DAF8046805460A220021304600F051
:1001800002F82C6070BD2DE9F04791460F4680467D
:100190000446002614F8015B2DB100F03FF800681A
:1001A000405DC007F6D12B2D02D02D2D18D0641E36
:1001B0004A463946204600F035F827B13968A14251
:1001C00001D1C7F8008071054FF002040BD5404201
:1001D000002803DD02F0A8F80460A007BDE8F0875E
:1001E00046F48066E4E70028F8DA02F09DF804603F
:1001F0006FF00040F2E70000064C074D06E0E068B3
:1002000040F0010394E8070098471034AC42F6D35D
:10021000FFF770FF182A0008382A000800487047C6
:10022000142A00082DE9F05F824600780027154661
:100230008B460AF10104B946302801D09DB113E084
:1002400014F8010B0127782803D0582801D045B1B4
:100250000AE00DB1102D07D10027102514F8010B6D
:1002600002E0082500E00A250026B0460EE005FB66
:10027000080005FB06F1012701EB10461FFA80F884
:10028000B6F5803F00D3B94614F8010B294600F0BB
:1002900018F80028EBDABBF1000F05D00FB1641E8F
:1002A00000E05446CBF80040B9F1000F06D002F050
:1002B0003BF802210160C81EBDE8F09F48EA0640F5
:1002C000FAE73A2800D2303820F02002412A01D340
:1002D000A2F13700884201D34FF0FF30704730B5AC
:1002E0008C1810F8012B12F00F0301D110F8013B0C
:1002F000120906D110F8012B03E010F8015B01F898
:10030000015B5B1EF9D101E001F8013B521EFBD1FC
:10031000A142E6D3002030BD10B54FF400410348A0
:1003200001F010F9002800D0012010BD001001409C
:1003300010B50821034801F005F908B1002010BDEF
:10034000012010BD000C014010B54FF4804103485E
:1003500001F0F8F8002800D0012010BD0010014085
:1003600010B50421034801F0EDF8002800D0012069
:1003700010BD00000008014000B597B001200D49F4
:100380000A9101030B918DF8240002210C90159124
:1003900009A800F0F5FA24220DA96846FFF7C2FE6D
:1003A0000DF1240C9CE80F0000F08AF900F07CFBB2
:1003B00017B000BD000C014070B596B001240320B9
:1003C000124D15908DF8244026030A95CDE90B6453
:1003D00040F68C20CDE90D4000206421CDE91001CC
:1003E0004FF4FA61CDE912100F90149024220DA958
:1003F0006846FFF797FE234632462946099800F0E3
:100400005FF900F051FB16B070BD0000000C014018
:1004100070B596B001240220124D15908DF824403D
:1004200026030A95CDE90B6440F2A460CDE90D40A6
:1004300000204FF49671CDE91001C821CDE91214C6
:100440000F90149024220DA96846FFF76BFE2346F7
:1004500032462946099800F033F900F025FB16B022
:1004600070BD0000000C014000B597B001200C49A0
:100470000A9181020B918DF8240005210C901591B1
:1004800009A800F0D7FA24220DA96846FFF74AFE12
:100490000DF1240C9CE80F0000F012F917B000BD1C
:1004A000000C014000B597B00C490A9101200221CF
:1004B0000B918DF8240004210C90159109A800F0EF
:1004C000B9FA24220DA96846FFF72CFE0DF1240C81
:1004D0009CE80F0000F0F4F817B000BD00080140E0
:1004E00000B597B001200C490A9141030B918DF89A
:1004F000240006210C90159109A800F033FA24225B
:100500000DA96846FFF70EFE0DF1240C9CE80F00C4
:1005100000F0D6F817B000BD0010014000B597B04C
:1005200001200C490A9101020B918DF82400082149
:100530000C90159109A800F07DFA24220DA96846B7
:10054000FFF7F0FD0DF1240C9CE80F0000F0B8F867
:1005500017B000BD000C014000B597B001200C4958
:100560000A9141020B918DF8240007210C901591FE
:1005700009A800F05FFA24220DA96846FFF7D2FD12
:100580000DF1240C9CE80F0000F09AF817B000BDA4
:10059000000C014000B597B001200C490A914103BD
:1005A0000B918DF8240006210C90159109A800F0FC
:1005B00041FA24220DA96846FFF7B4FD0DF1240C81
:1005C0009CE80F0000F07CF817B000BD001001405F
:1005D00000B597B001200C490A9141030B918DF8A9
:1005E000240006210C90159109A800F0BBF92422E3
:1005F0000DA96846FFF796FD0DF1240C9CE80F004D
:1006000000F05EF817B000BD0010014000B597B0D3
:1006100001200C490A9141030B918DF82400062119
:100620000C90159109A800F005FA24220DA968463E
:10063000FFF778FD0DF1240C9CE80F0000F040F866
:1006400017B000BD0010014010B596B00120174949
:100650000A9141030B9106218DF8240015910C900D
:10066000FFF75AFE002396244FF4AF710A2228B1F7
:100670000D910E9140F2DC500F9103E0CDE90D2178
:1006800064200F91CDE910301294CDE91323242278
:100690000DA96846FFF746FD09AC94E80F0000F08D
:1006A0000FF803A001F021FD16B010BD00100140AD
:1006B00061646420524543414C4C0D0A0000000027
:1006C0000FB4002070B5154C00EB800101EBC001A8
:1006D00004EB8101109A096B91420DD0401C08284F
:1006E000F2D3002000EB800101EBC00114F82110CF
:1006F00029B1401C0828F5D370BC5DF814FB00EB51
:10070000800101EBC00504EB8500342204A9FFF74A
:1007100009FD012004F82500EEE70000601100202B
:1007200030B500220D4B0E4C1046012502EB820124
:1007300001EBC201521C03F8210003EB8101082ADE
:100740000863C1E90140C1E9035048618861C8619B
:10075000086248628862C862E8D330BD6011002038
:10076000000C0140704700002DE9F04786B00024DE
:1007700043480094019402940394816941F020015C
:100780008161816901F020010491816941F00401D6
:100790008161816901F004010491816941F00801DE
:1007A0008161816901F008010491816941F01001C2
:1007B00081618069DFF8CC8000F010000490002295
:1007C0004FF4A051404600F0C6FEDFF8BC90002276
:1007D0000221484600F0BFFEDFF8B0A04FF40057FA
:1007E00000223946504600F0B6FE78100126CDE9C9
:1007F0000006022569464046CDE9024500F0C4FDE9
:10080000CDE9005669464846CDE9024500F0BCFDF9
:100810004FF4E060CDE9000669464046CDE9024567
:1008200000F0B2FDCDE9007669465046CDE90245BB
:1008300000F0AAFD0420CDE9000469464846029470
:1008400000F0A2FD0820CDE900046946404602946C
:1008500000F09AFD6803CDE9000469465046029411
:1008600000F092FDA803CDE90004694650460294C9
:1008700000F08AFDFFF754FF06B0BDE8F0870000E6
:1008800000100240000C014000080140001001402F
:1008900070B52D49002000BF00EB800202EBC002C2
:1008A00011F822208AB300EB800202EBC00401EBB6
:1008B00084020023D568B5B115690DB1002102E0AD
:1008C00055691DB1012100F093F82EE095690DB135
:1008D0000221F8E7D5690DB10321F4E701F82430CE
:1008E0001363D36017E0156A0DB100210AE0556A61
:1008F0000DB1012106E0956A0DB1022102E0D56A31
:1009000025B1032100F05AF80FE00BE001F8243084
:1009100001201363D060108981B25068002200F07A
:100920001AFE02E0401C0828B6D3084908680028CF
:1009300009D0401E086006D105A001F0D6FBBDE835
:100940007040FFF765BD70BD6011002010000020F1
:100950004254206F6E204D43552073746172742091
:100960000D0A0000012240F21451C0E904210021C7
:1009700064238161C0E90713C0E90921C16270479E
:100980000121016140F68C214161002164228161D5
:10099000C0E90712C822C0E90921C162704710B539
:1009A000FFF7D2FC28B1FFF707FDBDE81040FFF7C5
:1009B000E3BCBDE81040FFF72BBD000070B50D464D
:1009C00000EB800101EBC0010848002200EB81042C
:1009D000208981B2606800F0BEFD04EB8501086AE1
:1009E000401E086201D10120E06070BD601100204E
:1009F00070B50D4600EB800101EBC0010C480122EF
:100A000000EB8104208981B2606800F0A4FD04EB52
:100A100085010869401E086108D1E0602089002234
:100A200081B26068BDE8704000F095BD70BD000007
:100A30006011002001227D21C0E90421002114233E
:100A40008161C0E90713C0E90921C1627047FEE76F
:100A5000014800F04DBA00001C050020014800F0DC
:100A600047BA00001C05002001F034B901F0C2BCF7
:100A70000448007808B1012801D000F037B800F030
:100A800013B800001400002010B5064C00221021FD
:100A9000204600F060FD20460122BDE810402021E4
:100AA00000F059BD000C014010B50A4C0122102184
:100AB000204600F050FD01222021204600F04BFD91
:100AC0000549012008704870BDE8104003A001F0FE
:100AD0000CBB0000000C01401400002042542073A5
:100AE0006F75726365206F6E0D0A000010B50022ED
:100AF0003021054800F02FFD044900200870BDE8B2
:100B0000104003A001F0F1BA000C014014000020D5
:100B1000526164696F20736F75726365206F6E0D2B
:100B20000A00000010B50A4C207810B1012802D04C
:100B300003E0012000E000202070FFF799FF2078FB
:100B4000012803D1BDE8104000F004B810BD00003A
:100B50001400002010B5FFF7F7FB002805D1FFF7C0
:100B600057FC024944F62060486010BD1400002084
:100B700030B585B000241548009401940294039484
:100B8000816941F0080181618069114D00F0080020
:100B9000049022463021284600F0DDFC4FF420402E
:100BA000CDE9000469462846029400F0EDFB3020B0
:100BB00000900120CDE901040220039069462846F7
:100BC00000F0E2FBFFF770FF05B030BD00100240FF
:100BD000000C014003480078012801D00120704733
:100BE0000020704714000020024943F69820486016
:100BF000FFF75ABF1400002070B52E4C606818B182
:100C00006068401E606070BD64206060FFF79CFB00
:100C100000250028207802D0012805D007E008B17F
:100C2000FFF764FF657070BDFFF782FB28B1A06815
:100C3000A0B1401EA06009D010E0A0680028F8D143
:100C40001DA001F052FAFA20A060F2E7FFF770FB56
:100C500020B9FFF74BFF1DA001F047FA607821781B
:100C60000843A178084307D1FFF762FB20B1FFF7E3
:100C70001BFF1BA001F039FAFFF75AFB00B96570A2
:100C8000FFF76EFB0028A0780BD018B90120A070E8
:100C90002078E06020780128C5D0BDE87040FFF7DB
:100CA00003BF0028BFD0A570207B2070BDE8704036
:100CB000FFF7DEBE140000206F6E20726164696F62
:100CC0002073746172740D0A000000005365742073
:100CD000526164696F204175746F0D0A0000000055
:100CE000736574204254206175746F0D0A00000012
:100CF0007047704790F82020012A07D0022A05D0BB
:100D0000416A41F4802141620120704700684269D4
:100D10000A4342610020704710B590F82030026805
:100D2000012B07D0022B05D0416A41F4802141629A
:100D3000012010BDD2F8000240F00100C2F800020C
:100D4000087D00F01F0301209840D2F81C32834335
:100D5000C2F81C32CB69B3B9D2F80C328343C2F863
:100D60000C328C894B6864F31F434C6902EBC4045A
:100D7000C4F840320C890B6864F31F434C6902EBE2
:100D8000C404C4F84432CB69012B16D1D2F80C321A
:100D90000343C2F80C320C884B6864F31F434C6960
:100DA00002EBC404C4F840320C89CB6864F31F43DF
:100DB0004C6902EBC404C4F844328B69002BD2F8AE
:100DC00004320FD053EA0003C2F804320B69002B3F
:100DD000D2F8143208D00343C2F81432096A012948
:100DE00004D008E08343EFE78343F5E7D2F81C1211
:100DF0000143C2F81C12D2F8000220F00100C2F830
:100E00000002002010BD704730B590F82040012C42
:100E100005D0022C03D0416A41F480215DE00468D2
:100E2000002955D02469A40754D04FF4D87405681C
:100E300004EB01142D5915F00405956005682D5932
:100E40004ED0ED08556005682C59C4F34004D460B9
:100E50004FF4DA74056804EB01142D5905F00F0501
:100E6000156105682D59C5F30725956105682C594D
:100E7000240C54614FF4DC72046802EB0112A45894
:100E80001C700468A458240A5C700468A458240CDC
:100E90009C700468A258120EDA704FF4DE72046877
:100EA00002EB0112A4581C710468A458240A5C7156
:100EB0000468A458240C9C710468A258120EDA71BC
:100EC000006881B1016941F020010161002030BD5D
:100ED000E468A8E7416A41F400114162012030BD95
:100EE0006D0D1560AFE7C16841F02001C160EDE70D
:100EF0002DE9F05F0546006800244669D0F80490AB
:100F00008768D0F80CB0D0F810A0D0F81880F1079E
:100F100048D0F90714D001218160B80703D52846CD
:100F200000F019FA0CE0780702D54FF4006407E0EE
:100F3000380702D54FF4805402E0284600F00AFA40
:100F4000F80516D529684FF480708860B80503D578
:100F5000284600F002FA0CE0780502D544F400546B
:100F600007E0380502D544F4804402E0284600F04A
:100F7000F3F9F80316D529684FF480308860B80378
:100F800003D5284600F0EBF90CE0780302D544F4D1
:100F9000004407E0380302D544F4803402E02846D8
:100FA00000F0DCF9300707D55FEACB6004D529688B
:100FB000102044F40074C86070074FF0080707D58C
:100FC0005FEA0B7004D52868C760284600F072F904
:100FD000B00706D52868C068800702D0284600F010
:100FE0006BF9700607D55FEACA6004D5296810203E
:100FF00044F480640861B00607D55FEA0A7004D53E
:1010000028680761284600F075F9F00606D52868BB
:101010000069800702D0284600F06DF9B00308D5BA
:101020005FEAC96005D5296810204860284600F0AD
:1010300063F9F00307D55FEA097004D528684760B3
:10104000284600F08DF9300446D55FEA497040D556
:10105000F00504D55FEAC87001D044F00104B00582
:1010600004D55FEA887001D544F00204700504D508
:101070005FEA487001D544F00404300529D518F022
:10108000700F26D008F07000402815D006DC10281C
:1010900009D020280AD0302816D10AE050280ED0D6
:1010A000602811D10EE044F008040DE044F0100473
:1010B0000AE044F0200407E044F0400404E044F077
:1010C000800401E044F480742868816921F0700193
:1010D0008161296804204860002C05D0686A20439B
:1010E00068622846FFF78FFEBDE8F09F70B50400E8
:1010F00003D094F8200010B104E0012070BD204618
:1011000000F082F82068016821F00201016000F01F
:1011100027FA0546052604E000F022FA401B0A28BB
:1011200011D8206840688007F6D42068016841F033
:101130000101016000F014FA05460BE000F010FA1E
:10114000401B0A2806D9606A40F40030606284F8C7
:101150002060D2E720684068C007EFD0207E0128D9
:10116000206801683DD021F080010160607E012887
:101170002068016838D021F040010160A07E01287C
:101180002068016833D021F020010160E07E012851
:10119000206801682ED041F010010160207F0128F5
:1011A0002068016829D021F008010160607F0128D2
:1011B0002068016824D021F004010160D4E9020113
:1011C0000843D4E90412114308436168491E0843E7
:1011D0002168C86100206062012084F8200000209E
:1011E00070BD41F08001C0E741F04001C5E741F02A
:1011F0002001CAE721F01001CFE741F00801D4E750
:1012000041F00401D9E7000010B586B0002100913B
:1012100001910291039100682349884242D12348F9
:10122000C16941F00071C161C16901F000710491AF
:10123000816941F00401816180691D4C00F0040066
:1012400004904FF4006000906946204600F09CF83E
:10125000A0140090022001900320039069462046CC
:1012600000F092F800221146132000F0E3F9132059
:1012700000F0D4F900221146142000F0DBF914200C
:1012800000F0CCF900221146152000F0D3F915200A
:1012900000F0C4F900221146162000F0CBF9162008
:1012A00000F0BCF906B010BD006400400010024020
:1012B000000801407047000070B50C4C0C4DA1783F
:1012C000A5F11C0201EB410105EB810300211B1D6F
:1012D000FFF79AFDA5F11C000168A07800EB400221
:1012E000401C45F82210A07070BD000008000020CE
:1012F00060050020704770477047000070B50446D5
:1013000090F82000012804D0606A40F40020606258
:1013100018E0022084F820002068016821F0010113
:10132000016000F01DF905460EE000BF00F018F95D
:10133000401B0A2808D9606A40F40030606205202A
:1013400084F82000012070BD20684068C007EDD1FE
:10135000606270BD70477047704770477047704754
:101360007047000070B5044600F0FAF80546601CAE
:1013700002D004480078044400F0F2F8401BA04278
:10138000FAD370BDA80100202DE9F84FDFF890A135
:1013900000220AF1040B144601274FF00F090BF14C
:1013A000040E00BF0B6807FA04F52B40AB4274D162
:1013B000DFF870C14E68A6EB0C0866452BD00DDC3B
:1013C000032E34D005DC36B3012E19D0022E2FD1D6
:1013D0001BE0112E16D0122E2AD119E0B8F5881F65
:1013E00019D006DCB8F5803F15D0B8F5801F1FD1A5
:1013F00011E0B8F5001F0ED0B8F5041F18D10AE0AF
:10140000CA6815E0CA68121D12E0CA6808320FE007
:10141000CA680C320CE08A682AB1012A4FF008022F
:1014200003D0456104E0042202E0056100E00022EF
:10143000FF2B01D8064601E000F104064FEA8405BF
:1014400001D9A5F12005D6F800C009FA05F82CEA63
:10145000080C02FA05F54CEA050CC6F800C04D6808
:10146000ED0057D5304DAE6946F00106AE61AD696D
:1014700024F0030605F0010500952C4D06EB050C44
:10148000DCF80850A6074FEA167809FA08F6B543C3
:10149000274EB04202D1002610E03BE0254EB0427C
:1014A00001D101260AE0244EB04201D1022605E016
:1014B000224EB04201D1032600E0042606FA08F6C7
:1014C0002E43CCF808604D68DAF80060ED0355460D
:1014D00001D51E4300E09E432E604D68DBF800609E
:1014E000AD035D4601D51E4300E09E432E604D686E
:1014F000DEF80060ED02754601D51E4300E09E4314
:101500002E604D68AD020E4D2E6801D51E4300E0E1
:101510009E432E60641C102CFFF444AFBDE8F88F8E
:1015200000040140000011100010024000000140C2
:1015300000080140000C014000100140001401406F
:101540000C0401408068084000D001207047C26848
:101550004A40C26070470AB1016170470904FBE765
:101560000148806870470000A80100200248816897
:101570000278114481607047A8010020074810B527
:10158000016841F010010160032000F073F80020B1
:1015900000F006F800F024F8002010BD0020024002
:1015A00070B50D4D04464FF47A712878B1FBF0F018
:1015B0000A490968B1FBF0F000F0FCFA48B9102CB8
:1015C00007D200222146501E00F034F800206C6043
:1015D00070BD012070BD0000A8010020B4010020F2
:1015E0000C4808B5816941F001018161816901F010
:1015F00001010091C16941F08051C161C06900F0F1
:10160000805000900448416821F0E06141F0007191
:10161000416008BD001002400000014000F01F02C0
:10162000012191404009800000F1E020C0F8001144
:1016300070470000F0B40E4B1B680C46C3F3022346
:10164000C3F10705042D00D90425191D072901D26E
:10165000002300E0DB1E012606FA05F1491E2140A9
:1016600099409E40761E16403143F0BC00F02DBDDF
:101670000CED00E0064900F0070208684FF6FF0392
:10168000184040EA0220034A1043086070470000F7
:101690000CED00E00000FA052DE9F047DFF8548179
:1016A00005460E46D8F8000000F00700B0420CD204
:1016B000D8F8001021F007013143C8F80010D8F81D
:1016C000000000F00700B0426FD128684A4C810743
:1016D00012D5400703D5606840F4E0606060287868
:1016E000000703D5606840F4605060606068A968D6
:1016F00020F0F000084360602878C00744D0686894
:10170000012816D02168022816D0890700294CDA52
:10171000616821F0030101436160FFF721FF6968FF
:10172000074641F2883001290ED00229814618D09F
:1017300026E021688903E9E78901E7E7FFF710FF61
:10174000C11B494501D918E081466068C0F381009A
:101750000128F3D118E000BFFFF702FFC11B494584
:101760000BD86068C0F381000228F5D10CE000BFFF
:10177000FFF7F6FEC11B494502D90320BDE8F087FB
:10178000606810F00C0FF3D1D8F80010404601F05B
:101790000701B1420BD9016821F007013143016013
:1017A000006800F00700B04201D00120E6E7287889
:1017B000400705D56068E96820F4E0600843606090
:1017C0002878000706D56068296920F4605040EA4F
:1017D000C100606000F036F86168084AC1F3031187
:1017E000515CC840064908600020FFF7D9FE002080
:1017F000C4E70000002002400010024078290008E1
:10180000B40100200448054900684968044AC1F34E
:101810000221515CC8407047B40100200010024012
:10182000882900080448054900684968044AC1F34A
:10183000C221515CC8407047B40100200010024032
:101840008829000812A185B00FC98DE80F0014A0E7
:10185000144A006804905168134801F00C03042BEB
:1018600010D0082B0ED1C1F38343C9031DF8030028
:101870000AD5516804AAC1F34041515C0A4A504359
:10188000B0FBF1F005B0704708494843FAE70000A3
:1018900002030405060708090A0B0C0D0E0F1010B1
:1018A000010200000010024000127A0000093D0011
:1018B0002DE9F84F04460078B94DC00748D0686854
:1018C000C0F38100012807D06868C0F381000228B6
:1018D00009D16868C00306D52868800338D56068D8
:1018E00000286FD034E06068B0F5803F0BD010B1B5
:1018F000B0F5A02F11D0286820F480302860286827
:1019000020F4802002E0286840F48030286060687D
:1019100088B1FFF725FE064609E0286840F48020DC
:101920002860F0E7FFF71CFE801B642875D8286844
:101930008003F7D50CE0FFF713FE064605E000BF75
:10194000FFF70EFE801B6428F0D828688003F7D4C8
:101950002078944E80074FF001094FF000083BD5E6
:10196000686810F00C0F07D06868C0F38100022887
:1019700009D16868C00306D42868800714D5206997
:1019800001281FD110E02069B0B1C6F80090FFF720
:10199000E7FD074605E000BFFFF7E2FDC01B022898
:1019A000C4D828688007F7D52868616920F0F80056
:1019B00040EAC10028600FE0C6F80080FFF7D0FDC4
:1019C000074606E0E9E000BFFFF7CAFDC01B02289A
:1019D00023D828688007F7D4207800072CD57248D0
:1019E000A169D9B1C0F80090FFF7BAFD074604E03D
:1019F000FFF7B6FDC01B02280FD8686A8007F7D52D
:101A00006A484FF4FA510068B0FBF1F0009000BF53
:101A10000098411E0091FAD20EE080E0C0F80080EC
:101A2000FFF79EFD074604E0FFF79AFDC01B022862
:101A300075D8686A8007F7D42078400760D5E869D0
:101A40000027C00008D4E86940F08050E861E869E8
:101A5000012700F08050009055480168C90513D453
:101A60000168834641F480710160FFF779FD824689
:101A700006E000BFFFF774FDA0EB0A0064284ED813
:101A8000DBF80000C005F5D5E06801280AD008B1F0
:101A9000052813D0286A20F001002862286A20F067
:101AA000040002E0286A40F001002862E06841F288
:101AB000883B98B1FFF754FD82460BE0286A40F05E
:101AC00004002862EEE700BFFFF74AFDA0EB0A0121
:101AD00059455AD8286A8007F6D50CE0FFF740FD33
:101AE000824605E0FFF73CFDA0EB0A0159454CD8C2
:101AF000286A8007F6D41FB1E86920F08050E861B9
:101B0000E06988B36968C1F38101022945D00228E0
:101B1000C6F8608004D0FFF723FD044638E034E0C7
:101B2000FFF71EFD074604E0FFF71AFDC01B022861
:101B30002BD828688001F7D4206AB0F5803F05D102
:101B40006868A16820F4003008436860D4E908019F
:101B50000843696821F4741108436860C6F860900E
:101B6000FFF7FEFC044606E015E000BFFFF7F8FCB7
:101B7000001B022809D828688001F7D50BE000BFB8
:101B8000FFF7EEFC001B022802D90320BDE8F88F06
:101B900028688001F4D40020F8E70120F6E700006F
:101BA000001002400000424280044242B401002082
:101BB0000070004010B5401EB0F1807F01D30120BD
:101BC00010BD4FF0E02460610F21601700F07DFA36
:101BD0000020A06107202061002010BD70B5040026
:101BE00004D094F83900002510B106E0012070BD42
:101BF00084F83850204600F023F8242084F8390077
:101C00002068C16821F40051C160204600F0C2FA8A
:101C10002068016921F4904101612068416921F047
:101C20002A0141612068C16841F40051C160E56347
:101C3000202084F8390084F83A00002070BD0000AC
:101C400030B585B000240094019402940394006898
:101C50001B49884232D11B48816941F4804181612E
:101C6000816901F480410491816941F00801816139
:101C70008069154D00F0080004904020009002207B
:101C800001900320039069462846FFF77DFB8020E2
:101C9000CDE90004694628460294FFF775FB0B481E
:101CA000416841F0E06141F00401416000220321FC
:101CB0002520FFF7BFFC2520FFF7B0FC05B030BDA5
:101CC0000038014000100240000C014000000140BB
:101CD000FEE7000010B521488AB01F4901601821B5
:101CE0000024C0E90114C903C0E903414FF4801185
:101CF0004161047644768476C47604774477FFF7AE
:101D0000F5F908B1FEF7F5FF03940120089004945B
:101D10000E2005940694079409900094019402946F
:101D200069460E48FEF7F8FF08B1FEF7E2FF0B48E0
:101D3000FFF7E4FA20B10AA000F0D7F9FEF7D9FFC7
:101D400002210648FEF7D6FF08B1FEF7D2FF09A030
:101D500000F0CBF90AB010BD006400401C05002063
:101D600043414E207374617274206572726F720DFC
:101D70000A00000043414E20696E69740D0A00009C
:101D800010B50E4C0C480C2120604FF4E13060601F
:101D90000020A060E060C4E90401A061E061204689
:101DA000FFF71CFF08B1FEF7A4FF2068C16841F0EF
:101DB0002001C16010BD000000380140BC040020BB
:101DC000FEE7000010B50C284AD2DFE800F0490613
:101DD000111C202606112C363E32FEF7C1FA18B12E
:101DE000FEF7D8FB1FA037E0FEF75CFB21A033E035
:101DF000FEF7B6FA18B1FEF7EBFB23A02CE0FEF7D6
:101E000033FB26A028E0FEF701FC29A024E0FEF722
:101E1000B3FAFEF7E9FE2BA01EE0FEF7C0FDFEF7C9
:101E2000E3FE2DA018E0FEF795FEFEF70DFC30A0B6
:101E300012E0FEF777FE33A00EE0FEF7CBFE00289F
:101E40000ED1FEF789FB35A006E0FEF7C3FE0028A1
:101E500006D1FEF763FB34A0BDE8104000F045B9A1
:101E600010BD00004D434420416E737765720D0A2A
:101E7000000000004D434420536B697020666F7270
:101E8000776172640D0A00004D43442063616C6CFD
:101E90002072656A6563740D0A0000004D4344209A
:101EA000536B6970206261636B776172640D0A0025
:101EB0004D434420706C61792F70617573650D0A14
:101EC000000000004D434420706F776572206F6EF4
:101ED0002F6F6666200D0A004D434420706F7765B2
:101EE000722072657374617274200D0A0000000024
:101EF0004D434420726563616C6C206C6173740D9A
:101F00000A0000004D434420746F67676C655F737F
:101F10006F75726365200D0A00000000566F6C75C6
:101F20006D652075700D0A00566F6C756D652064C7
:101F30006F776E0D0A0000002DE9F0410025154E67
:101F40005FF0010705EB450016F83010E1B106EB34
:101F5000C0046078C0B92069022804D0032806D0E4
:101F6000042808D010E040F21451A06806E041F2C5
:101F70008831A06802E0A06846F2A811884203D91F
:101F80006069FFF71FFF67706D1CEDB2102DD9D38C
:101F9000BDE8F0812800002000200649024600BF6D
:101FA00000EB400301EBC303401CC0B25A70102881
:101FB000F6D37047280000200849002000EB4002BB
:101FC00011F8323023B101EBC20293685B1C9360BD
:101FD000401CC0B21028F1D3704700002800002038
:101FE0002DE9F0410446017822A000F07EF8234854
:101FF0002178041D016081B10020012300EB400223
:1020000004EBC2056D688D4201D104F83230401CEA
:10201000C0B21028F2D3BDE8F08100254FEA0508D0
:1020200005EB450614F8360048B104EBC6073869DD
:10203000BA68012810D0294611A000F056F804EB28
:10204000C6016D1CC1F8088004F83680EDB281F835
:102050000180102DE4D3DEE71046103AB2F5946FFC
:10206000EDD2024629460FA000F03FF87869FFF74D
:10207000A9FEE4E76225750D0A0000002400002097
:1020800062746E20616374697665204F54484552CE
:1020900020257520707265737320256C75200D0ADC
:1020A0000000000062746E206163746976652073BD
:1020B000686F727420257520707265737320256CAB
:1020C00075200D0A0000000070470907090E00285E
:1020D00006DA00F00F0000F1E02080F8141D7047D0
:1020E00000F1E02080F80014704770477047704797
:1020F00010B5FFF73BFABDE8104000F0D9B930B594
:102100008FB028216846FEF726F814210AA8FEF7AA
:1021100022F802240120049000941020059000254C
:102120004FF46010CDE9085007946846FFF7C0FBF4
:102130000AA90F2081E831006002CDE90D050221D6
:102140000AA8FFF7A9FA0FB030BD00000D480168DA
:1021500041F00101016041680B4A11404160016892
:102160000A4A11400160016821F480210160416840
:1021700021F4FE0141604FF41F0181600449C00356
:1021800008607047001002400000FFF8FFFFF6FEF5
:1021900008ED00E02DE9F041044600680169E268BD
:1021A00021F44051114301612169A068084361692C
:1021B00008432168CA6841F20C639A430243CA602B
:1021C00020684169A26921F44071114341614C4981
:1021D00020686425322688423CD1FFF723FB00EBC0
:1021E000C00101EB001061688900B0FBF1F7FFF757
:1021F00019FB00EBC00101EB00106168B0468900DB
:10220000B0FBF1F0B0FBF5F06FF01801484307EBBD
:10221000800106EB0110B0FBF5F000F0F006FFF7CF
:1022200001FB00EBC00101EB001061688900B0FB0D
:10223000F1F0B0FBF5F006EB0016FFF7F3FA00EB58
:10224000C00101EB001061688900B0FBF1F7FFF7F6
:10225000E9FA3BE0FFF7D6FA00EBC00101EB001012
:1022600061688900B0FBF1F7FFF7CCFA00EBC00121
:1022700001EB00106168B0468900B0FBF1F0B0FBE3
:10228000F5F06FF01801484307EB800106EB0110F1
:10229000B0FBF5F000F0F006FFF7B4FA00EBC00178
:1022A00001EB001061688900B0FBF1F0B0FBF5F0C4
:1022B00006EB0016FFF7A6FA00EBC00101EB0010D9
:1022C00061688900B0FBF1F7FFF79CFA00EBC001F1
:1022D00001EB001061688900B0FBF1F0B0FBF5F094
:1022E0006FF01801484307EB800108EB0110B0FBC9
:1022F000F5F0216800F00F0030448860BDE8F081FF
:102300000038014000F0F0BA00F0EEBA0148FEF7E4
:10231000EFBD00001C0500200148FEF7E9BD0000EC
:102320001C050020FEE7000000487047B8010020AF
:1023300002E008C8121F08C1002AFAD1704770478E
:10234000002001E001C1121F002AFBD170470000EC
:1023500086B0FFF713F9FFF7D2FE00F0C3FAFEF7DD
:1023600003FAFEF705FC0020009001900290039014
:102370001948816941F0080181618069012200F0FA
:102380000800164DD402049021462846FFF7E3F8D2
:1023900001210220CDE90210CDE90041694628461D
:1023A000FEF7F2FF0A20FEF7DDFFFEF75DFBFFF709
:1023B000F3FDFFF747FA014609A0FFF796FE00BFBD
:1023C00000F0DCF900F0F8F8FEF750FBFEF7CAF970
:1023D000FFF7B2FDF4E7000000100240000C0140DE
:1023E0005354415254204350553A20256C750D0AE0
:1023F0000000000070B5284D284C47E000EB40007D
:1024000005EB80010A7955F8201025A0FFF76DFE35
:10241000607800EB400055F82010B1F5CA7F32DD3E
:1024200040F20543A1F2054299422CD016DCB1F5E9
:102430002C7F28D00ADCB1F5E57F1FD023DCB1F575
:10244000D27F20D0B1F5D47F1DD117E0B1F5806FD8
:1024500019DAA1F540712A3915D10FE0921E102A20
:1024600011D2DFE802F01010101010101010101030
:102470001010101010080120207004E005EB8000FF
:10248000001DFFF7ADFD6078401C60706078A1789A
:102490008842B3D170BD0000600500200800002014
:1024A000676574202578203A2025780D0A00000001
:1024B00010B5FEF7EDF9FEF79FFBFFF77DFD00F08D
:1024C0001BF80A490868401C0860B0F5FA6F0CD385
:1024D0000020086006480078002806D0BDE81040BB
:1024E0004FF400610348FFF732B810BD0000002030
:1024F00008000020000C014010B50B4C606800285B
:1025000011D0401E0A21B0FBF1F2606001FB120005
:1025100010B9E07800F00AF86068002803D1BDE83F
:10252000104000F003B810BD080000200A4B30B482
:1025300099780A4A01EB41044FF4D47542F82450CB
:1025400002EB8402491C1071CAB29A70014630BC79
:1025500003A0FFF7CABD00000800002060050020AE
:1025600062746E202575202025750D0A200000005C
:102570000122401E82400348C270416002A0FFF762
:10258000B4BD00000800002025750D0A0000000001
:10259000034841F2707141602021C1707047000012
:1025A0000800002003484FF4487141602021C170A9
:1025B000704700000800002070B55C4CA178E078FE
:1025C000814274D000EB400101EBC00004EBC0027B
:1025D00045F24103B2F84600C11A984269D027DC9F
:1025E00044F23162A0EB0201904248D013DC44F285
:1025F0003122A0EB0201904244D006DCA0F58241DA
:1026000041394DD00D2930D164E012296BD0B1F59C
:10261000917F2AD13FE0A1F5407113397CD0A1F51B
:10262000C061023928D0082923D0EB291DD12CE024
:1026300040F20135A1F20133A94245D00BDCB1F5DE
:10264000F87F69D0A1F50071013940D0F0291FD081
:10265000FF290AD135E0102B30D0A3F58073013B60
:1026600046D0092B3CD0112B37D0C2B2010A30A082
:1026700050E0FDF7CDFE4FE0FDF77EFE4CE0FDF7AC
:1026800011FF49E0FDF7F0FE46E0FDF7BFFF43E034
:10269000FDF726FF40E0FDF763FE014628A003E0BA
:1026A000FDF73AFE014629A0FFF71FFD34E03BE0AD
:1026B000FFE7FDF749FE014627A0F5E7FEF716FA0A
:1026C0002AE0FEF7E1F927E0FEF7EEF924E0FEF755
:1026D00066F921E0FDF75EFF1EE0FFF763FF1BE0F8
:1026E000FFF756FF18E0FDF723FE01461DA0DBE7CC
:1026F000B2F84A1092F84800FFF73AFFE07800EB92
:10270000400101EBC00004EBC000B0F84A20B0F873
:10271000481017A0FFF7E9FCE078401CC0B2E07059
:10272000052801D30020E07070BD0000BC0100202E
:102730006E6F20636D6420256325630D0A00000021
:1027400063616C6C202575200D0A00004175646979
:102750006F202575200D0A00506F77657220257552
:10276000200D0A004243202575200D0A00000000BC
:1027700054432025752025750D0A0000FEB55748E5
:102780000025574C01784278914236D004F5DF722B
:10279000525C491CC9B20170402900D305702079F0
:1027A00040280CD22178204401EB410303EBC10106
:1027B000062303EBC10142542079401C20710A2AF0
:1027C0001BD12078401CC0B22070052800D3257092
:1027D000207800EB400101EBC00004EBC000402179
:1027E000801DFDF7B8FC207800EB400101EBC00034
:1027F00004EBC00080F85C50257120786178884235
:1028000045D001EB410202EBC10104EBC1010026FE
:102810003046A1F846501FE0022E13D211F8462F81
:102820004FF6FF7303EA02220A80617801EB41034D
:1028300003EBC10104EBC1018B199B791A43A1F889
:10284000462007E0202A23D0092803D20DF80020D3
:10285000401CC0B2761CF6B2617801EB410202EB7B
:10286000C10104EBC1018A1992790D2A01D03F2ED2
:10287000D2D16078401CC0B26070052800D365706A
:10288000A078401CC0B2A070052800D3A570FEBD82
:102890000028DFD091F85C100A29DBD26846FDF7EA
:1028A00065FC617801EB410202EBC10104EBC1015F
:1028B00091F85C2001EB4201A1F84800607800EB40
:1028C000400101EBC00004EBC00010F85C1F491C84
:1028D00001700020009501950295BBE704000020DF
:1028E000BC010020FFF74CBA30B520490A681068D7
:1028F000C04383061E4811D4D3689B060ED5546886
:102900004378A1F5A175EC545B1CDBB24370402BFE
:1029100001D3002343706FF0200313600A6813682B
:10292000DB431B0615D4D3681B0612D58378C47805
:10293000A34209D1D06820F08000D0600868C26846
:1029400042F04002C26004E00A4CE45C54605B1C4C
:10295000837008680168C943490606D4C1684906FE
:1029600003D5C16821F04001C16030BDBC04002026
:1029700004000020BA030020000000000000000056
:102980000102030406070809000000000102030415
:102990000040404040404040404041414141414072
:1029A0004040404040404040404040404040404027
:1029B00040050202020202020202020202020202B6
:1029C00002202020202020202020200202020202BB
:1029D0000202909090909090101010101010101013
:1029E000101010101010101010101010020202021F
:1029F0000202888888888888080808080808080863
:102A0000080808080808080808080808020202025E
:102A10004000000091290008382A0008000000202A
:102A2000BC010000DE020008782A0008BC0100207A
:102A30004415000040230008011133401F330101F9
:102A400073EC2CC201C24042018201C28042018269
:102A500002C24042038208C2804202820BC201428B
:102A6000038204C20242038205C220420202DC0346
:082A70004201921054A24A0435
:04000005080000ED02
:00000001FF
